:020000022000DC
:103000000000012039BE020079BE02007BBE020032
:103010007DBE02007FBE020081BE020000000000F3
:1030200000000000000000000000000045AC0200AD
:1030300085BE02000000000065AC020089BE0200EF
:103040008BBE02008BBE020011A902008BBE0200E3
:103050008BBE02008BBE02008BBE02008BBE020044
:103060008BBE02008BBE02008BBE02008BBE020034
:103070008BBE02008BBE02008BBE02008BBE020024
:103080008BBE02004DAA02008BBE02008BBE020066
:103090008BBE02008BBE0200F15302008BBE020009
:1030A0008BBE02008BBE02008BBE02008BBE0200F4
:1030B0008BBE02008BBE020000000000000000007A
:1030C0008BBE02008BBE02008BBE02008BBE0200D4
:1030D0008BBE02008BBE02008BBE0200000000000F
:1030E00000000000000000000000000000000000E0
:1030F00000000000000000000000000000000000D0
:1031000000000000000000000000000000000000BF
:1031100000000000000000000000000000000000AF
:10340000044B05481B1A062B02D9044B03B118477D
:10341000704700BF6F3300206C33002000000000B5
:1034200005490648091A891001EBD171491002D0EB
:10343000034B03B1184770476C3300206C330020F6
:103440000000000010B5064C237843B9FFF7D8FF01
:10345000044B13B10448AFF300800123237010BD67
:103460006C330020000000008420030008B5084BE6
:103470001BB108490848AFF300800848036813B936
:10348000BDE80840CCE7064B002BF9D09847F7E79A
:103490000000000070330020842003006833002007
:1034A00000000000154B002B08BF134B9D46A3F5F1
:1034B000803A00218B460F461348144A121A09F02D
:1034C0002EFF0F4B002B00D098470E4B002B00D047
:1034D00098470020002104000D000D48002802D06C
:1034E0000C48AFF3008009F0AFFE2000290008F07F
:1034F000E9FC09F083FE00BF000008000000012085
:1035000000000000000000006C330020283E002076
:10351000000000000000000030B5202489B00546FE
:1035200022460021684609F0FAFE2346074C084867
:103530006A46294601F05EF80649204607F00BF876
:103540006946204607F016F809B030BDEC39002076
:10355000D83500209000030010B5074C204607F036
:1035600001F80649204607F005F820460449BDE861
:10357000104006F0FFBF00BFEC3900209E000300A2
:10358000AB00030038B5114B0A781A704A78104C1A
:10359000642A22701D4605D90E490F4806F0DBFF4C
:1035A000002323700D490C4806F0D5FF0A2221782C
:1035B000094807F015F80A49074806F0CCFF2978B2
:1035C00005480A22BDE8384007F00AB880340020D8
:1035D0007E340020D2000300EC390020FB00030001
:1035E0001601030010B5044B044640F8103B00F0F0
:1035F00015FC204610BD00BFAC04030010B5114CF3
:103600000621204600F0B0FA204600F09BFA0E4951
:10361000204600F06DFA04F1380000F077FA2046F9
:10362000012100F0CBFA2046F422202100F0C2FA5A
:1036300020461E2100F0BCFA20460021BDE81040C3
:1036400000F0EABAB43800206C34002073B530487A
:10365000304D01F0A4FEE0B12F4B30491B883048BB
:10366000DAB21B0A0A704B702E498DF806200978D1
:103670008DF80410042229788DF805100DEB020155
:103680008DF8073000F09AFD18B92749274806F051
:1036900071FF274A2B781478A342164632D01C1BA0
:1036A00032235C43BCB12349204806F063FF0A2261
:1036B00021461E4806F0C0FF002C05DD01211E48F2
:1036C00002F0A6FE013CEDE74FF0FF311A4802F090
:1036D0009FFE0134E6E70A2007F05CF9174B1B78E0
:1036E0002BB11749114806F045FF2C700AE0154B25
:1036F0001B782BB114490D4806F03CFF642300E011
:1037000033782B704FF47A7007F044F902B070BD33
:10371000D8350020953400207C340020D13500209D
:1037200098340020D035002031010300EC3900200E
:103730007E34002065010300403400207F340020E7
:1037400073010300943400208601030070470000D9
:10375000F0B585B002AC204643F63A2101F086FB75
:10376000324F3348334D344E94E8060001F066FB87
:10377000204649F6D17101F079FB94E806003846FD
:1037800000F070FC2A46314638462C4F09F004FD03
:10379000204649F6D27101F069FB94E806003846EC
:1037A00000F060FC2A4631463846254F09F0F4FC0B
:1037B000204649F6D37101F059FB94E806003846DB
:1037C00000F050FC1F4C2A463146384609F0E4FC14
:1037D0001D4802F0CFF84FF48071204602F0CCF97A
:1037E00020461A4C1A492A4609F0D6FC204601F018
:1037F0001DFF04262A46052716492046164C09F0C7
:10380000CBFC8DE8C00003230222C821134802F03C
:103810000DFD80233A463146204602F0B3FE2A468B
:103820000F49204609F0B8FC05B0F0BDD83400209F
:103830006C340020003200201D3E0200983400202D
:10384000B03300201835002088330020F0330020EA
:103850001D5D0200E5350200843400204034002064
:103860009D64020037B52C4C2C482D4D01F0CAFA4E
:103870002046082100F00FFC11221146204600F0DE
:103880001BFC0221204600F00BFC204600F0CEFA83
:103890002846102100F0FFFB00222846112100F0ED
:1038A0000BFC0421284600F0FBFB284600F0BEFA82
:1038B0001C4B1D491B88DAB21B0A4B700A701B494E
:1038C0008DF8062009788DF8041019498DF8073015
:1038D000042209788DF805102046164C0DEB0201E4
:1038E00000F06CFC2046102100F0D5FB00222046A1
:1038F000112100F0E1FB0121204600F0D1FB204620
:1039000000F094FA02A9002301F8083D01222046A4
:1039100000F054FC03B030BDD83400206C340020DB
:10392000983400207C340020D1350020D035002090
:1039300095340020B033002070B52E4C2E4E2F4D04
:1039400020464FF4E13106F083FE3146204606F072
:1039500011FE2B49204606F00DFE2A49204606F0AE
:1039600009FE00220121284601F04CFB2649204691
:1039700006F000FE3146284601F0CCFC28462349DB
:1039800001F025FD2846224901F024FD2149224865
:1039900000F097FB2149204606F0ECFDFFF762FF9F
:1039A0001F49204606F0E6FDFFF728FE20461D4C85
:1039B0001D4906F0DFFD9FED1D0A204602F00AFEBC
:1039C00020460A2102F000FE0121022008F0FEFD3F
:1039D0000121032008F0FAFD0121042008F0F6FD82
:1039E0000121052008F0F2FD64211148BDE8704076
:1039F00002F03EBCEC3900209A010300D8350020CB
:103A0000CA1C0300A7010300CD0103001935020001
:103A10005935020085350200D8340020F301030037
:103A200018020300843400203E0203000050DCC56D
:103A30004034002072DF704773DF704774DF7047D7
:103A40000022C2770270704770B51D46C37F0E46D4
:103A50001146EA181D2A04460EDC18446A1CE2547A
:103A6000023000F8016C2A4609F033FCE27F023292
:103A7000AB18E377012070BD002070BD2DE9F04147
:103A8000002688B007460D4601EBC208344645457E
:103A900016D0284601F0F5F9102802D0802809D068
:103AA0000CE008AA631C02EB44042A8824F8202CAA
:103AB000DCB203E00EB1002017E06E680835E6E7DF
:103AC00014B966B9012010E0630003F0FE036A46F2
:103AD00003213846FFF7B8FF0028F2D1EBE71023A7
:103AE000324607213846FFF7AFFF08B0BDE8F08146
:103AF00013B50831044603C901228DE80300694665
:103B00002046FFF7BBFF02B010BD000010B588B023
:103B10006946044620220A4801F010FCE27F13188F
:103B20001D2BC4BFC2F11D02D0B20346CCBF082179
:103B300009216A462046FFF787FF08B010BD00BF85
:103B4000D835002013B50446064801F006FC02AA49
:103B5000012302F8010D0A212046FFF775FF02B08C
:103B600010BD00BFD835002007B502AA012302F816
:103B7000011D1946FFF768FF03B05DF804FB08B5A7
:103B80000346FFF75DFF0121002283F82110202169
:103B90009984F420198583F820201E21D88483F885
:103BA00022205985DA859A851A635A63184608BD1A
:103BB000418570478184C2840185704780F8211057
:103BC000704700007FB504460E46154600211022BE
:103BD000684609F0A4FB94F820308DF800300121EC
:103BE0006846ADF80A60ADF80C50FFF725FF70B9D4
:103BF000084801F0D7FCE28D268595424FF0010080
:103C000094BF521B921A84F82200E28500E0002043
:103C100004B070BDD835002038B50C4DC185818504
:103C200095F83333C17F05F545720446FFF702FF6F
:103C300050B92846FA2101F093FB628DA18C2046F1
:103C4000BDE83840FFF7BEBF002038BDD8350020A2
:103C500008B50346FFF7F2FE30B983F822000348A7
:103C600001F0B1FC012008BD002008BDD8350020BE
:103C700038B50B88112B044612D01B2B24D0102BE7
:103C800059D1CD7B012D56D1002380F822302A480E
:103C900001F099FC29462848BDE8384001F09FBC56
:103CA0008988254800F07CFC012844D10021224865
:103CB00001F095FC94F82130002B3CD0A18D2046DA
:103CC000BDE83840FFF7A8BF0B7A002B33D180F84E
:103CD00022304FF4FA71184801F042FBA38D23B94A
:103CE000636B03B19847002205E0E38D4BB1636B32
:103CF00003B19847E28DE18C2046BDE83840FFF7DC
:103D000061BF0D4801F05FFC236BA3B107F066FEB5
:103D100001284FF0100002D109F0BCFA01E006F0D2
:103D2000D1FF0023226B0372036043724260BDE83F
:103D3000384008F07DBA38BDD835002010B50446AB
:103D400007F04CFE0128204603D1BDE8104009F0E1
:103D5000A1BABDE8104006F0B5BF102202801822BB
:103D6000428000224260826070470000014800F0FB
:103D7000A3BB00BF38390020F7B50F888C88102FFF
:103D800005460E4602D0112F19D038E021461D48B5
:103D900000F006FC022832D16B6883B33846FFF787
:103DA000CDFF00226968026042720122027202AAFB
:103DB000034642F8084D41601068D86019E021467A
:103DC000104800F0EDFB0228074618D1AB68B3B1EC
:103DD0001420FFF7B3FFA96841600022026042721D
:103DE0000772327A019200946A46034603CAD86089
:103DF0001961184603B0BDE8F04008F019BA03B0E5
:103E0000F0BD00BFD8350020A2DF7047A3DF7047A8
:103E1000A4DF7047A5DF7047A6DF7047704710B575
:103E2000044608F0A5F8204610BD000070B55A4BB6
:103E300004461B680361061D96B0304601F02FF85A
:103E400094F8223013F0320101BF94F8232061F37B
:103E5000030261F3071284F8232013F00C0101BF61
:103E600094F8242061F3030261F3071284F82420FC
:103E700013F030050ED04FF00003012262F342032D
:103E80008DF80630454B1B788DF8043094F82330BC
:103E90008DF805301C2200210FA809F040FA94F893
:103EA00022308DF83C3000230DB91A4600E001AAFB
:103EB000ADF8083014924FF00003012262F3420380
:103EC00060698DF80A3094F823308DF8083058B1C5
:103ED00003784BB110900AF008F902AB80B2ADF84C
:103EE0004400ADF846001393A37E13B104F11A0306
:103EF0001293142200210DEB020009F010FA04F1D4
:103F00002303069394F825300596DB0754BFE38915
:103F10000023ADF81C30E389ADF8203005AA04F188
:103F200026030FA90020FFF76FFF054670BB637ED5
:103F300033B30346012262F342038DF80E3094F846
:103F40002330ADF80C008DF80C30154B1868049038
:103F5000142229460AA809F0E2F90223ADF830300C
:103F6000ADF8343004AB0A9303AB0B930DF10202AE
:103F700004F118030AA928460E93FFF747FF40B93A
:103F8000257B2DB92146074800F0CCFD284600E0EE
:103F9000002016B070BD00BFD43500204C020300D5
:103FA0004E020300B43600200B88502B73B5054633
:103FB0000C4614D0512B2CD18B79022B03D1436B9F
:103FC0000BB108319847A379012B22D12B6B03B396
:103FD00004F10801284602B0BDE870401847CA88BD
:103FE000C38C9A4205D1866B1EB1CB890A8A1231E5
:103FF000B047E2886B8D9A420BD1EB6B4BB1628A72
:10400000ADF80620BDF80610284602B0BDE87040A5
:10401000184702B070BD00001422C281104A127805
:1040200080F8242080F8232001214FF00102002392
:1040300061F342020373036143610383C0F81A30E2
:10404000C0F81E3080F8223080F82520C384038514
:1040500083854385036343638363C363704700BF02
:104060004C02030013B504468DE8060023460649BA
:1040700043F8041B9DE8030083E805002046FFF792
:10408000CBFF204602B010BD5C0203000069704700
:1040900001230373704780F822107047C181704775
:1040A00090F8253019B1C1816FF3000301E043F0AE
:1040B000010380F82530704780F8231080F8242011
:1040C0007047816370470A1C90F82530416318BF20
:1040D000012262F3041380F8253070474161704774
:1040E00051F8263F03604B684360704713B5C4899D
:1040F0000191A24228BF224600230093C18CADF853
:1041000000204FF6FF706A46FFF782FE10B9BDF837
:10411000000000E0184602B010BD38B5054608465C
:104120000C4609F0E2FF214682B22846BDE838403D
:10413000FFF7DCBF07B502AB022223F8021D1946C8
:10414000FFF7D4FF03B05DF804FB000030B505466F
:1041500085B0114801F023F9E0B1688DD0B1022398
:10416000002402940C48ADF808300DF106030393C7
:1041700001F033F902AA698DFFF74CFE43F20143C7
:10418000984202D1ADF8064002E008B180B201E0E9
:10419000BDF8060005B030BDD835002008B590F850
:1041A000222002F0100202F0FF0322B1FFF7CEFF3F
:1041B00000F0010008BD184608BD00002DE9F041DF
:1041C00090F8223003F010030E4686B0054603F047
:1041D000FF01002B46D0C489944228BF1446FFF744
:1041E000DDFF0746002837D0214801F0F6F80146E8
:1041F0001F4800F0F9F903381FFA80F89CB31C48F7
:1042000001F0EBF801461A4800F0DBF958B3A0457D
:1042100043464FF0000128BF2346102202A8ADF804
:10422000063009F07CF801238DF80A30EB8CADF8EC
:1042300008300F4805960DF10603049301F0CDF800
:1042400002A9FFF7E9FD28B9BDF80630E41AA4B2C7
:104250001E44D3E7002706E0224631462846FFF7F2
:1042600045FF00E00F46384606B0BDE8F08100BFCC
:10427000D83500209ADF70479CDF70479DDF70477C
:1042800010B5044607F0AAFB0128204603D1BDE87B
:10429000104008F0FFBFBDE8104006F013BD00233A
:1042A00083827047806900F0F7B8808A7047000009
:1042B0002DE9FF410B88CF88382B04460D4674D07A
:1042C000392B03D0362B40F0E180B9E00B7B012B7A
:1042D00002D0022B32D0D9E0C36A002B00F0D68086
:1042E00090F8342012F0010FCA8924D01046FFF74D
:1042F000C7FF0646002800F0C980EA8905F11001D1
:1043000008F0E7FF1820FFF7BBFFE26A42600022D7
:10431000427203220272EA890660039201940296B5
:1043200001AA034603CAD86019611068586118468B
:1043300007F07EFFAAE010319847A7E0036B002B3F
:1043400000F0A48090F834208E8812F0020FCA8901
:1043500024D01046FFF794FF0746002800F096800F
:10436000EA8905F1100108F0B4FF1820FFF788FF73
:10437000226B42600022427203220272EA890760C5
:1043800003920194029701AA034603CAD8601961F7
:1043900010685861184607F04BFF01E0103198474C
:1043A00069893046FFF76AFF70E017B104F11C001D
:1043B0006AE000F11C060A8A3046394601F07DFDAC
:1043C00095F80C80B8F1010FF0D0B8F1040F5DD171
:1043D000A06900F061F801462E4800F005F9228D31
:1043E000A38A053880B2904228BF1046B0B1019729
:1043F000EA89ADF806302B8AADF80A001344ADF80F
:104400000830A069636A8DF80480039300F044F8D3
:1044100001A9FFF731FF002838D00FE005220290F4
:1044200003908DF80420A069ADF8063001228DF8C4
:10443000052000F031F801A9FFF71EFF304623E008
:10444000806900F029F80146124800F0CDF80646D0
:10445000002FABD104F11C07EA8905F110013846A1
:1044600001F02BFD238D73B1033EEB89B6B2013E03
:10447000B34208DBA06900F00FF8628DA18A92B206
:10448000FFF7F8FE10B1384601F02FFD04B0BDE88B
:10449000F08100BFD83500208088704710B50446F1
:1044A000043001F0BEFC012323804FF6FF736380CC
:1044B00000232375204610BD017D10B5044621B9A7
:1044C000043001F0B2FC0123237510BD007D70475C
:1044D0000B88322B10B5044611D0332B1BD0302B58
:1044E00027D1CB8833B94B8923B10A221144201D2F
:1044F00001F0E3FC201DBDE8104001F0F6BCCB88C4
:10450000002BF7D14A89002AF4D0013A02EB82024B
:1045100052000C320AE0CB88002BEBD14A89002AEA
:10452000E8D0013A02EB42025200083292B20A315C
:10453000DDE710BD7FDF704786DF70478FDF704794
:1045400090DF7047ADDF704710B5C82204460021E8
:104550000C3008F0E4FE172303222380E3800123BC
:10456000E37023716372A37262F3061384F8D4308C
:10457000072384F8D5301023A270227284F8D63035
:1045800084F8D72084F8D820204610BD01290CBF1C
:104590000088C0887047282303FB0101487B7047CF
:1045A000282303FB0101887B704710B5282303FBF8
:1045B000021252F8123F03609388838093798371CB
:1045C00010BD042908B50DD8282303FB0101086A92
:1045D00048B100236622194606F06AFD003018BF74
:1045E000012008BD002008BD282303FB0101088A23
:1045F00070470000F0B587B004AC16461F460D4664
:1046000020464FF4285100F031FC8DE8C0004FF6F1
:10461000FF7303930123029394E80C002946024898
:1046200000F03AF907B0F0BDB4360020F0B58E883E
:104630004FF6FF739E4218BF28240B881ABF04FB55
:1046400006040C3400241A2B95B007460D4600F0E2
:10465000BD8019D8132B56D010D8102B2BD0112B6E
:1046600040F00381002560696570257006F0D0FD7B
:104670006561A06906F0CCFDA561F6E0142B00F0A1
:104680008A80192B6ED0F0E03C2B00F0C3800BD851
:10469000212B00F0CF80232B40F0E7800022114631
:1046A0003046FFF74DFFE0E0552B00F0CD80572B53
:1046B00000F09F80D9E001232370CB7BA37055F8D5
:1046C000082FC4F80620AA8862811723AA79A3803C
:1046D000F6B2282303FB060322739B7B012B0CBF3E
:1046E000C078787A014606F0E7FB282303FB0676BC
:1046F0006061B37B012B0CBF3879B87A014606F0B4
:10470000DBFBA061B1E007F069F901284FF0500030
:1047100002D108F0BFFD01E006F0D4FA05462061A1
:10472000002800F0A2805022002108F0F8FD4FF68A
:10473000FF732022E3810021684608F0F0FD05F1B7
:104740001C030493A3780095012B05F138050CBFD9
:1047500007F1D40200226B46002130460595FFF791
:10476000E9FE82E00B7A43B92269A07801236370E5
:10477000538AE381314601F03BFC256907F02EF9AD
:104780000128284602D108F08DFD01E006F0A6FAC6
:104790000023236169E050220021684608F0BFFD34
:1047A0006A46298AA07801F04FFC0346A88843B1E5
:1047B00000230EAA6946FFF7BFFEBDF81230E38161
:1047C00053E01A461946FFF7B7FE4EE00B7A112B5D
:1047D00006D0E289A078314601F0C2FC0123637063
:1047E000606A002841D000231A46194606F06EFB85
:1047F0003BE06369002B38D00026AA79F3B29A42D5
:1048000006F1010631D900231A461946606906F0FF
:104810005DFBF2E7A36943B30026AA7AF3B29A429A
:1048200006F1010621D900231A461946A06906F0AF
:104830004DFBF2E70023694630468DF800308DF8D5
:104840000130FFF77BFE10E0F3B2282202FB0303E6
:10485000C9889B7B012B0CBF0388C388994228BF62
:104860001946A1803046FFF76DFE15B0F0BD99DF07
:10487000704738B50446F82500F5F87001F0D1FA14
:104880002A460021204608F04AFD2A4600216019E8
:1048900008F045FD204638BDF0B585B08DE80C0028
:1048A000BDF83030ADF80C30BDF83430ADF80E3016
:1048B0000F466E4600F5F875284601F0FCFA0446EE
:1048C00028B1124800F090FD06F064F8F4E70121E9
:1048D000284601F0AAFABDF82C200A99284601F0D2
:1048E000B9FA03AA31463846FFF7C1FF28B94FF499
:1048F000FA71284601F0B3FA0446284601F09EFA00
:1049000024EAE47080B205B0F0BD00BFD8350020C5
:104910002DE9F04F0E888F88A6F11003012B87B088
:1049200005460C4612D84FF000082A785FFA88F343
:104930009A420BD99B002B44112E586803680CBF78
:104940001B685B68984708F10108EEE7744800F0BF
:1049500044FD874217D14FF028094FF0000A09FBA8
:1049600007F90AE0502E13D0512E04D1B4F8088074
:10497000B8F1000F0FD10AF1010A95F854205FFA3F
:104980008AF39A42EED805F5A67A4FF000091FE0A7
:10499000B4F80680ECE71633684655F823B059465C
:1049A000FFF79EFBBDF80020424500F09580594678
:1049B00002A8FFF795FBBDF80C204245DBD18BE048
:1049C0005AF8040FFFF76EFC874206D009F101097F
:1049D00095F84C319945F3DB16E0382E03D0392E8B
:1049E00001D0362EF2D1B4F80A80B8F1000FEDD024
:1049F000DAF800B05846FFF758FC8045E6D121466A
:104A00005846FFF755FCE1E7112E26D1002495F812
:104A1000F820E3B29A4201D8002618E005EB8303A0
:104A2000D3F8FC008388BB4202D103681B68984717
:104A30000134ECE705EB8404D4F85001FFF732FCB5
:104A4000874203D1D4F85001FFF729FC013695F8CD
:104A50004C31F4B2A342EDD85EE0532E16D0562E60
:104A600026D0352E58D1618981B1A2890E34231BFD
:104A7000901CB3FBF0F38B4205F5F87503D2A11C33
:104A8000284601F01AFA284601F02FFA244A282372
:104A900007FB033313441446586820B100231A4619
:104AA000194606F013FA282202FB0747012310E0FB
:104AB0001B4A282307FB033313441446586820B1CC
:104AC00000231A46194606F001FA282202FB07477E
:104AD000002387F828301FE0DBF800205846D26812
:104AE000214690470E4800F07BFC00283FF443AF7E
:104AF000502E7FF440AF594604A8FFF7F1FABDF8F5
:104B0000143043457FF437AF054B4B4439465A8B3D
:104B1000987B01F0B1FA2EE707B0BDE8F08F00BF37
:104B2000D835002090F85430282B1FBF5A1C16335C
:104B300080F8542040F8231014BF01200020704753
:104B40000378132B9FBF5A1C027000EB8300416057
:104B500094BF0120002070478ADF704710B50446DB
:104B600006F03CFF0128204603D1BDE8104008F0C4
:104B700091BBBDE8104006F0A5B8000001214170CE
:104B800080218170084900220270C2708280027305
:104B9000826002614261034600F1180208684968B8
:104BA00003C21846704700BF6C02030010B50446EC
:104BB000C1831830FFF7D0FF28B9044800F0F2FC99
:104BC0000120207010BD002010BD00BFD83500208E
:104BD00038B5012A9DF814501BD948780C789842B2
:104BE00004D1013C0231E4B209D114E0E0430244B3
:104BF000013412F0FF022144EFD1104638BD15B147
:104C0000AC4228BF2C462246049808F062FB20469E
:104C100038BD002038BD084638BD37B5CC7B9DF87F
:104C2000185010318DE828001346E208FFF7D0FF36
:104C300003B030BD2DE9F04F8FB002AC8046204666
:104C4000894684E80C0000F01CF9C0B2102807D196
:104C500002238DF8143003238DF81530274606E023
:104C600006238DF81430039F07238DF81530002696
:104C7000C508B2461F22002106A808F050FB05AB6C
:104C80004946F25CCDF800A006AB4046FFF7C5FFF1
:104C90000DF1180B04465CB12A463946584608F017
:104CA00009FB08B9012007E0641BAB44E4B2F2E75A
:104CB0000136022EDED120460FB0BDE8F08F000095
:104CC0002DE9FF410B88112B04460D466FD002D809
:104CD000102B5FD08DE01B2B7BD01D2B40F08980EB
:104CE00090F9022091F916309A4200F38280037BFA
:104CF00001F1080613B9E378BBB925E04FF00008CD
:104D0000237B5FFA88F7BB420BD9A36803EBC70389
:104D10000CCB31462046FFF78DFF08F10108002833
:104D2000EED0237BBB42E6D163E002230093FF2257
:104D300003AB31462046FFF770FF002859D0A28808
:104D4000BDF80C309A4254D12F20FFF707FF3435BD
:104D500007463146034651F8042B43F8042BA94279
:104D6000F9D10A881A808A789A702369002B40D07A
:104D70001020FFF7F3FE22694260002242720122F6
:104D8000027204AA076042F8047D03461068D860E6
:104D900018462CE0CB7B022B2BD100230370164846
:104DA00000F011FC0121144800F019FC21E0898871
:104DB0001148FFF7F5FB02281BD12178C9B90E482D
:104DC00000F00DFC6378A3B1E18B2046FFF7EEFE07
:104DD0000FE00B7A012B0CD1436953B11020FFF780
:104DE000BDFE00226169026041604272027207F0FA
:104DF0001FFA04B0BDE8F081D8350020A0DF70476D
:104E00007047000037B500F108050446284600F059
:104E100046F829460DF106020120FFF7EFFF05468F
:104E200028B9044B04481C602146FFF789FE284638
:104E300003B030BDD4350020B436002013B504468D
:104E40008DE806002346064943F8081B9DE8030049
:104E500083E8050000232046A38002B010BD00BFF8
:104E60007C02030062DF704763DF704701238370B9
:104E700000230180436070470023837003804160FA
:104E800070478378012B06D0426832B9012B8CBF62
:104E9000802000207047102070478020704708B5A0
:104EA0008378024653B9406840B1911CFFF7DAFF9E
:104EB00010205168BDE80840FFF7D6BF002008BDAC
:104EC00048DF704710DF704775DF704776DF704747
:104ED00077DF704778DF70477ADF70477CDF704795
:104EE0007DDF7047A9DF704760DF704769DF70477B
:104EF00061DF704767DF70477047132007F0C6BB5C
:104F000037B50E4C0E4DD4F8900300234FF0FF320E
:104F1000194606F0CDF80028F5D001A8FFF7D0FF1C
:104F200010B10528F9D1EEE70198831E012BF4D8C2
:104F3000002DF2D007F004F9EFE700BFD8350020CC
:104F400041C1020010B5044606F048FD0128204684
:104F500003D1BDE8104008F09DB9BDE8104005F050
:104F6000B1BE10B50446FFF7EFFA04F1DC00FFF71D
:104F700080FC04F53770FEF702FE04F54570FEF77D
:104F80005FFD04F54D70FFF7F9FD04F55570FEF770
:104F9000E4FE04F55870FFF781FA04F5677000F03D
:104FA00065FC4FF400620023C4F878230A22C4F899
:104FB0007C3384F87D23012284F898234FF6FF7216
:104FC000A4F8EC231022A4F882231822A4F8842346
:104FD00084F87C33C82284F8803384F8813384F8E1
:104FE0008A33C4F88C33C4F89033C4F89433A4F8EB
:104FF0008623A4F88833C4F8F033C4F8F433204689
:1050000010BD000070B59B4B80F8801390B0054632
:1050100080F8812318680590974905A8FFF752FF8B
:10502000002840F0688195F87D130D90934A0E900A
:105030000F908DF8341001200DA90692FFF756FF4E
:10504000002840F0588195F880230D908DF8342089
:1050500095F881238DF83520003218BF01220E907B
:105060000F908DF836200DA9069A4020FFF73EFFDD
:10507000002840F0408195F87C230D900E900F9011
:1050800062F300008DF83400069A0DA9A020FFF706
:105090002DFF002840F02F81D5F878230E900F9037
:1050A0000D920DA9069AA120FFF720FF002840F0DD
:1050B000228195F8802322B995F88123002A45D1D1
:1050C0008AE02A880D900E900F900124ADF83620CA
:1050D0000DA9069A8DF834402320FFF707FF00281A
:1050E00040F0098195F880230D908DF83620AA783C
:1050F0000E900F90ADF838200DA9069A8DF8344027
:105100002020FFF7F3FE002840F0F580EA780D90AC
:105110000E900F908DF836200DA9069A8DF8344028
:105120002220FFF7E3FE002840F0E5802A790D9069
:105130000E900F908DF836200DA9069A8DF8344008
:105140002120FFF7D3FE0028B6D0D4E000220D9234
:105150000E920F92EA88ADF836200224069A8DF856
:1051600034400DA92320FFF7C1FE002840F0C38082
:1051700095F881230D908DF836202A7A0E900F90A5
:10518000ADF838200DA9069A8DF834402020FFF79D
:10519000ADFE002840F0AF806A7A0D900E900F901F
:1051A0008DF836200DA9069A8DF834402220FFF79D
:1051B0009DFE002840F09F80AA7A0D900E900F90DF
:1051C0008DF836200DA9069A8DF834402120FFF77E
:1051D0008DFE002840F08F8006A8FFF785FE00288E
:1051E00040F0898009900A90C0B240F001008DF82B
:1051F000240009A90220FFF77DFE00287BD1B5F825
:105200008223ADF82C20B5F884230C90ADF82E2025
:105210000BA8B5F88623ADF83220FFF75DFE002815
:1052200069D110A81B7900F8303D0B221449FFF713
:1052300055FE034600285DD1FFF74CFE03460028CB
:1052400058D1FFF745FE002855D105F5677000F0ED
:105250002FFB95F881331BB105F55570FEF786FDE0
:1052600003220021012005F009FEC5F88C0348B98E
:10527000042040E088020300F94E020000320020C2
:10528000A8020300002407AB032601934FF4C06279
:1052900023461A49039402940096194806F02EF802
:1052A00032462146012005F0E9FDC5F890030028AB
:1052B000DED008AB0193C82223461249039402941E
:1052C0000096114806F01AF8104BC02283F81623F6
:1052D0004FF480021A600E4B0093012223464FF4D4
:1052E0008071204606F060FCC5F8940300F06AFE69
:1052F000204600E0184610B070BD00BFB4020300A5
:1053000059550200BB020300014F020000E100E01A
:10531000FB4E020037B5084B02AC1B7904F8043D84
:1053200008460D4608F0E1FE294682B22046FFF706
:10533000D5FD03B030BD00BF8802030007B50846A5
:1053400002A921F8022DFFF7CBFD10B99DF8060048
:1053500000E0002003B05DF804FB90F98A03704779
:1053600073B50446D0F894030E4606F04FFD0023B3
:105370000546B6024FF47A720093B6FBF2F20421AE
:10538000D4F8940306F02EFC3DB900952B462A462E
:105390000321D4F8940306F025FC02B070BDB0F8E8
:1053A000EC034FF6FF73C01A18BF01207047B0F826
:1053B000EC0308B54FF6FF73984206D01321FFF7B0
:1053C00085FDB0FA80F0400908BD012008BDC0F895
:1053D000F0137047C0F8F4137047B0F8EC0370474F
:1053E000B0F8EC13FFF7D7B8B0F8880370470000A7
:1053F00010B5064C0021D4F8900305F035FED4F822
:105400008C030021BDE8104005F02EBED8350020E9
:1054100073B504460D468E88FFF708F9294604F552
:105420003770FEF725FC04F54D702946FFF748FC60
:10543000B4F8EC032B88864205D0102B01D01B2B2F
:1054400060D1112B01E0112B3DD002D8102B0AD0D6
:1054500058E0122B33D0522B54D100231A46194650
:10546000FFF740FD4EE0EB7B012B4BD12B8AB4F8CC
:105470008223A888A4F8EC039A42A4F8883363D85E
:10548000B4F8842393425FD8D4F8F033002B39D09A
:105490001020FFF757FD0022D4F8F013026042728B
:1054A0000122027202AA4160B4F8EC1342F8081D0E
:1054B00003461068D860184606F0BAFE22E02B8931
:1054C000A4F888331EE0D4F8F433BBB11420FFF7FE
:1054D00039FD0022D4F8F4130260427202220272F3
:1054E0004160B4F8EC2300922A7A01926A4603469E
:1054F00003CAD8601961184606F09AFE4FF6FF738A
:10550000A4F8EC3394F8813363B1B4F8EC33B342CC
:1055100003D14FF6FF739E4204D1294604F555701E
:10552000FEF72AFC04F558763046FEF7CFFF18B197
:1055300029463046FEF7CCFF294604F1DC0002B0D4
:10554000BDE87040FFF7E4B90021FFF7BDFC00287B
:105550009AD002B070BD000073B54FF4FA70FFF737
:10556000F1FC0F4E044600234FF0FF321946D6F8E7
:105570008C0305F09DFD0028F5D04FF4FA750DF170
:1055800006012046ADF80650FFF7B2FC20B92146CF
:105590000348FFF73DFFF2E70528E4D0EFE700BF3F
:1055A000D835002090F8983313B553B1D0F8944310
:1055B00005F0BAFF0023024600930121204606F0C1
:1055C00011FB02B010BD07B5002300931A4603215A
:1055D000D0F8940306F006FB03B05DF804FB90F8E6
:1055E000983313B1132007F013B8704710B5054C6A
:1055F0002046FFF7B6FC2046034A0449BDE81040A8
:1056000007F0CABDD8350020003200201156020034
:1056100010B5054BC0F89C33044600F56B70FEF7DF
:10562000FDFB204610BD00BFE004030073B5054636
:1056300041F60F016846FFF719FC2E469DE806006B
:105640002846FFF7FBFB084B46F8103B684642F63E
:105650001921FFF70BFC9DE806003046FEF702FD1E
:10566000284602B070BD00BFAC04030038B5044644
:10567000FFF7C8FB054690B9103420461221FEF70B
:105680000AFD2A4620461121FEF716FD204601217B
:10569000FEF706FD2046BDE83840FEF7C7BB38BD23
:1056A0003ADF70473BDF704711DF704713DF704709
:1056B000A8DF7047AADF7047F0B59DB00C88074699
:1056C0000D46014608A8FEF70BFDBDF82030A342A9
:1056D00040F0B880AB79043B022B40F2B3805A4EC5
:1056E0003046FFF77AFE1022044600210DEB02003F
:1056F00007F015FE022338468DF81030FEF74EFDF8
:1057000040B940F2FD1304A92046ADF81430FFF76C
:10571000CFFF97E0002304A92046ADF81430FFF72F
:10572000C7FF2F7B012F40F08D80484D19463E2248
:10573000284607F0F4FD1CAA082322F8623D4449DC
:105740003B462046FFF7B6FF224631466846FEF745
:105750002CFF00982860BDF804209DF80630AB713E
:10576000AA8021463046FEF716FF10B3282303FB1C
:10577000046408AA618B384600F066FCC8B11AAC14
:1057800094E80300334AA980090C2860A97116AD7A
:105790002B4603CBA342106051601D4602F1080264
:1057A000F6D108AC0FCC2C4D0FC594E8070085E866
:1057B00007002648294C4FF6FF7110F8012B82EAAA
:1057C000112383EA13139AB243EA012383EA0233D3
:1057D00083EA4213A04299B2EFD11C4B1A48998731
:1057E000FFF7E5FD1E48FEF733FAFF210020FFF723
:1057F00059FFB1210020FFF753FF18BBFFF754FFFB
:1058000000BB184A136823F001031360164B4FF4D2
:105810008002C3F880210124420900F01F012032D8
:10582000013004FA01F1272843F82210F4D14FF097
:1058300010235869FFF73AFF20B980F3148858699C
:1058400000F0F2FC1DB0F0BDD8350020807F0020B4
:10585000B47F0020877F0020987F0020BC7F00203D
:10586000B438002010E000E000E100E073B5054628
:105870000C496846FFF700FB2E469DE806002846C7
:10588000FFF7DCFA084B46F8103B68460749FFF77C
:10589000F3FA9DE806003046FEF7E4FB284602B026
:1058A00070BD00BFB8040300E0040300C804030097
:1058B00030B5A3B00446FFF7A5FA00284FD112ADCA
:1058C00029492846FFF7D8FA95E8060002A8FEF70E
:1058D000C9FB02A8FEF7DCFB042102A8FEF7DBFBF4
:1058E00002A81421FEF7DAFB02A8FEF79FFA88BB94
:1058F000103418212046FEF7CEFB17212046FEF774
:10590000CDFB20461949FEF7DEFB2046FEF78EFA56
:1059100000BB17496846FFF7AFFA9DE80600284626
:10592000FEF7A0FB2846FEF7B3FB02212846FEF750
:10593000B2FB02212846FEF7B3FB2846FEF776FAB3
:10594000044618B901212846FEF7F4FB2846FEF765
:1059500065FA00E0044602A8FEF760FA00E004469B
:10596000204623B030BD00BFEC040300B95602004E
:10597000FC04030037B5044641F60A016846FFF708
:1059800075FA9DE806002046FFF758FA074B23609A
:10599000074B236100236361A361E361054B23622D
:1059A000054B6362204603B030BD00BF40050300D5
:1059B0000C0503001A1B030021050300F0B593B08A
:1059C0000546FFF71FFA00283BD106F0C3FD6861CA
:1059D00006F07CFD0C35E86042F624266F4655F84B
:1059E000043F3BB331463846FFF740FA97E80600DC
:1059F00002A8FEF737FB02A8FEF74AFB022102A825
:105A0000FEF749FB286808F070FB81B202A8FEF798
:105A100047FB02A8FEF70AFA044620B102A8FEF7E7
:105A2000FDF920460DE0296802A8FEF776FB02A8E2
:105A3000FEF7F4F90136B6B242F62A239E42CED1E1
:105A4000002013B0F0BD07B5036801229B690DF17A
:105A50000701984710B19DF8070001E04FF0FF30B3
:105A600003B05DF804FBA0F11000FFF7ECBF13B525
:105A700002AB026803F8011D146A19460122A0470F
:105A800002B010BDA0F11000FFF7F1BFD0F8A030B8
:105A9000988980B27047A0F11000FFF7F7BF70B58A
:105AA0000D461646FEF7F2FA044632462946D0F86D
:105AB000A00006F08CFCD4F8A83013B1BDE870400B
:105AC000184770BD37B50546D0F8B40080B1002442
:105AD000009423462246052106F084F8D5F8AC0050
:105AE000C5F8B44020B103B0BDE8304006F02DBC8D
:105AF00003B030BDD0F8A00006F027BCA0F1100024
:105B0000FFF7F8BF08B592B2D0F8A00006F0A0FCED
:105B100008BD07B5D0F8A0000DF1070106F0B2FCF2
:105B200010B19DF8070001E04FF0FF3003B05DF8C1
:105B300004FBA0F11000FFF7ECBF000037B590F8B0
:105B4000B03004469BB10B4B0093012203460A215F
:105B5000002006F029F8C4F8B400054605F0E4FC7E
:105B60000023024600930121284606F03BF803B0CB
:105B700030BD00BF695C0200F7B504460F466846B9
:105B80001A49FFF779F99DE806002046FFF756F914
:105B90004FF47A73A361164B1649002603F10802ED
:105BA00040332361226068466661FFF765F99DE82E
:105BB000060004F12000FEF755FA68460E49FFF78B
:105BC0005BF99DE8060004F16000FEF74BFA204601
:105BD000C4F8A060C4F8A860A4F8A470C4F8AC60CD
:105BE00084F8B060C4F8B46003B0F0BD5C05030095
:105BF0006C0503004C050300C405030070B50646A0
:105C00001848FFF7EAFB01461648FEF7EDFC03389B
:105C100085B205F0E3FE0128284602D107F03AFBE1
:105C200001E005F04FF80446D8B12A460146D6F8FF
:105C3000AC0006F00DFC024630B1214606F1200012
:105C4000FEF7BCFA054600E0012505F0C7FE012875
:105C5000204602D107F026FB01E005F03FF8284678
:105C600070BD70BDD835002008B506F0DBF8D0F85F
:105C7000AC301BB1BDE80840FFF7C0BF08BD000055
:105C80002DE9F04790F8B03005468946174600F1F7
:105C9000200813B1D0F8AC303BB9BAB249464046FF
:105CA000FEF78CFAF0B900242EE04046FEF776FAB3
:105CB0000028F8D0BEB232464946D5F8AC0006F00E
:105CC00086FBD5F8AC3004461148B3F80CA0FFF7BA
:105CD00084FB01460E48FEF787FC1FFA8AFA033858
:105CE000824501DA3C460FE02846FFF787FF00288F
:105CF000D9D0A742F6D9321B92B209EB0401404633
:105D0000FEF75CFA0028EDD12046BDE8F08700BF21
:105D1000D8350020A0F11000FFF7B2BF0A4B10B534
:105D20000360383304460361D0F8AC0010B1036857
:105D30005B68984704F16000FEF770F804F12000FA
:105D4000FEF76CF8204610BD7405030010B504463C
:105D5000FFF7E4FF204606F00BF9204610BD0000D7
:105D6000F8B50446182006F001F900220546012185
:105D700006F0B4FA2846C4F8A050B4F8A41006F00F
:105D8000CAFA2046FFF73EF80546B8BB01211C4879
:105D9000FEF7FCFB04F12006074610213046FEF713
:105DA0007AF92A4611213046FEF786F939463046FF
:105DB000FEF774F913493046FEF790F93046FEF7C6
:105DC00035F80546D0B9603420460C21FEF763F95A
:105DD00020460D49FEF775F9112229462046FEF7A7
:105DE0006BF939462046FEF759F920460749FEF778
:105DF00075F92046BDE8F840FEF718B82846F8BD0A
:105E0000D8350020D40503009F5A0200D8050300AE
:105E1000012303700023437043608360C381838147
:105E2000704708B5FFF7F4FF08BD10B504462170B0
:105E300019B90A2005F040F8606010BD037810B56C
:105E4000044613B9406805F0E3F92046BDE8104068
:105E5000FFF7DEBF002381608281C3817047037832
:105E600070B505460C467BB901236B700023A40274
:105E70004FF47A721946B4FBF2F2686805F018F92B
:105E800068B94FF0FF340CE003220021012004F038
:105E9000F5FF68600028E7D14FF0FF3070BDEC8956
:105EA000A4B22B7800266E701BB1686805F0B0F9BB
:105EB0006E60204670BD4078704738B58589954240
:105EC000044628BF154619B12A46806807F001FA32
:105ED000A3682B44A360A3895B1BA381E38915FA04
:105EE00083F39BB2E381284638BD406820B100238C
:105EF0001A46194604F0EABF7047A9DF7047AADFC7
:105F00007047000010B4054B054C01290CBF214619
:105F100019465DF8044B08F089B800BFF505030089
:105F2000DC05030010B5044605F058FD01282046A5
:105F300003D1BDE8104007F0ADB9BDE8104004F052
:105F4000C1BE10B5044605F049FD0128204603D125
:105F5000BDE8104007F0A6B9BDE8104004F0BEBE91
:105F60002DE9F0418AB00AAD0E46002125F81E1D2C
:105F700003230746904630462A46FFF7C0FFBDF888
:105F80000A00FFF7CFFF0446B8B1014603232A46B3
:105F90003046FFF7B4FF68B94246394603A8FFF719
:105FA000B1FF70220092BDF80A300548224603A9CD
:105FB00000F0AAFB2046FFF7C4FF0AB0BDE8F0815D
:105FC000D039002010B5074C204600F006FB0649EA
:105FD000204600F028FB20460449BDE8104000F0B0
:105FE00022BB00BFD03900200E06030022060300AA
:105FF000F0B5064685B050200D461746FFF792FFD4
:106000000446E8B13946502207F063F91820FFF73B
:1060100089FF0C4A426000224272032202720196FA
:106020000295039401AA0346046003CAD86010686D
:1060300058611846196105B0BDE8F04006F0F8B89F
:1060400005B0F0BDC560020010B58AB014460A461E
:10605000014603A8FFF756FF002300932246502372
:1060600003A9044800F026FB003018BF01200AB045
:1060700010BD00BFD03900207FB54FF6FF739A42A4
:1060800006460D46144619D01820FFF74BFF002294
:10609000026042720322027201960295039408493B
:1060A000416001AA034603CAD860106858611846C7
:1060B000196104B0BDE8704006F0BAB804B070BD14
:1060C000615F020030B514469BB001280CBF528AB4
:1060D000E28D0D4601460BA8FFF714FF2022002198
:1060E00012A807F01CF9202312AA29461A48FEF725
:1060F00081FA02220BA905A800F052FB05A800F0C6
:1061000061FB18B35022214605A800F02FFB9DF833
:1061100048309BB994F84910039194F84A100291C1
:1061200094F84B10019194F84C10009194F84D3074
:1061300094F84E20094912A807F078FF202212A9EE
:1061400005A800F013FB05A800F041FB05A800F02E
:106150004BFB1BB030BD00BFD83500204506030007
:1061600070B58EB00E46014607A8FFF7CBFE0122A0
:1061700007A901A800F014FB01A800F023FB08B94F
:10618000002423E001A800F044FBB0F17004F7D034
:106190002046FFF7C7FE05460028F1D0702101A870
:1061A00000F051FB2246294601A800F079FB48B1D6
:1061B000A2B2032329463046FFF79FFEB0FA80F4CF
:1061C000640900E004462846FFF7BBFE01A800F082
:1061D000FEFA2CB92346224621463046FFF78DFEB3
:1061E00001A800F001FB20460EB070BDF0B50346DB
:1061F000186880F308885868FF2464B2EFF30585B7
:10620000002D01D1A64600472546064621273FBA64
:10621000F0B40024002500260027F0B4F92040B295
:10622000004700BFF0BD00BFFFF7E0BF38B5836196
:10623000049BC3610446059B42610025036205611E
:106240000560856281601046012106F0BFF9A069F2
:10625000012106F0BBF9E069012106F0B7F9206AD7
:10626000012106F0B3F904236562E360204638BDDE
:106270008268034B93FBF2F393FBF1F141607047AB
:106280000087930338B5C368022B04460D4617D127
:10629000032915D8DFE801F002040A0C002100E010
:1062A0000121606906F0B4F9012106E0012100E056
:1062B0000021606906F0ACF90021A06906F0A8F998
:1062C000E368042B2FD1032D2DD8DFE805F0020859
:1062D000161C0121606906F09BF9002104E00021F1
:1062E000606906F095F90121A06906F091F9012194
:1062F000E06906F08DF9002112E00021606906F0E6
:1063000087F9012104E00121606906F081F900218B
:10631000A06906F07DF90021E06906F079F9012114
:10632000206A06F075F9E368052B70D1092D6ED847
:10633000DFE805F0050B1523252B354355570021C4
:10634000606906F065F9012150E00021606906F0FE
:106350005FF90121A06906F05BF900214AE0002104
:10636000606906F055F90121A06906F051F9002194
:10637000E06906F04DF9012140E0002100E0012133
:10638000606906F045F9012104E00121606906F029
:106390003FF90021A06906F03BF9002108E0012146
:1063A000606906F035F90021A06906F031F9012194
:1063B000E06906F02DF901210CE00121606906F089
:1063C00027F90021A06906F023F90121E06906F010
:1063D0001FF90021206A06F01BF9002112E00121BB
:1063E00000E00021606906F013F90021A06906F0C1
:1063F0000FF90121E06906F00BF90021206A06F08F
:1064000007F90121606ABDE8384006F001B938BDDE
:10641000F8B5002981EAE1750446A5EBE17501DDD7
:10642000012301E001D00023236000270A26002D6C
:1064300030D004F0A3FAA36A6268C31A9342F6D379
:106440002368A062012B236906D1A268013393421D
:10645000236107D1276105E00BB9A3682361236994
:10646000013B2361E368052B05F1FF35236904D166
:1064700093FBF6F106FB113108E0074919400029AA
:10648000BEBF01F1FF3161F0030101312046FFF78A
:10649000F9FECCE7F8BD00BF03000080704710B5DF
:1064A000044605F065FD204610BD08B5407906F0AC
:1064B000C1F8B0FA80F0400908BD2DE9F04104466A
:1064C0002046FFF7F2FF10B905F050FEF8E7012271
:1064D0002179607906F0E1F8012221790746607997
:1064E00006F0DBF8012205462179607906F0D5F83F
:1064F0004FF000080646A37998450AD20121207979
:1065000006F086F80021207906F082F808F10108EB
:10651000F1E738042D0200F47F0005F47F450543C0
:10652000F6B2354347F3C01045EA0060BDE8F0819C
:10653000402910B5044607D0802903D0202905D171
:10654000022302E0012300E00323A371207900214C
:1065500006F05EF82046BDE81040FFF7AEBF38B544
:10656000044602714171104601211D4606F02EF8C5
:106570006079002106F02AF829462046BDE8384017
:10658000FFF7D6BF38B5064D0560002585604FF092
:106590007E550446C560FFF7E2FF204638BD00BFC8
:1065A00074060300F8B5002406460F462546BC4293
:1065B00007D03046FFF781FF0134054405F0D6FDD2
:1065C000F5E795FBF4F0F8BD10B50446FFF7EAFFD8
:1065D000A06010BD80ED030A704730B504789BB011
:1065E0000546ECB90123037003F068FF00F026FCB8
:1065F0006860A8B9072302AA01A9019302F04AFE24
:10660000686068B902A800F00CFC0128686003D13A
:1066100002A800F0FAFB68606C68B4FA84F46409BC
:1066200020461BB030BDF8B5074608460D4607F0BA
:106630005CFD441C05F0D2F90128204602D106F089
:1066400029FE01E004F03EFB0446284607F04DFD1C
:106650000021421C20466E1C06F061FE30462F21B0
:1066600007F008FD064648B1421B2946204606F0C1
:1066700030FE204600F006FA0136EFE7284600F02B
:1066800001FA786005F0AAF90128204602D106F047
:1066900009FE01E004F022FB7868B0FA80F04009BE
:1066A000F8BD0000024B00225A601A70704700BF0C
:1066B000D0390020F0B587B005461646684601225D
:1066C0001F460C9C00F06CF8684600F07BF808B997
:1066D000002413E05CB93A463146684600F0E0F821
:1066E000059B6B600446684600F071F806E02146A1
:1066F000684600F0A8F80028EDD1E9E7684600F008
:1067000073F8204607B0F0BDF0B587B005460C9C85
:106710001646684602221F4600F042F86CB93A4617
:106720003146684600F022F8059B6B60041C684601
:1067300018BF012400F04BF806E02146684600F03F
:1067400082F804460028EAD1684600F04DF8204659
:1067500007B0F0BD13B502AB026803F8011D546821
:1067600019460122A04702B010BD704738B5044653
:106770000069154600F05AF9002860610CBF2846F0
:10678000002038BD10B504460846114604F1100239
:1067900000F025F96061B0FA80F0400910BD0000FA
:1067A00038B54FF47A7500238560054D4360044683
:1067B000056003614361FFF7E5FF204638BD00BF78
:1067C000840603000069003018BF0120704710B52F
:1067D0000446006900F010F900236061B0FA80F00F
:1067E0002361400910BD0000044B10B5036003692C
:1067F00004460BB1FFF7EBFF204610BD84060300F3
:1068000010B50446FFF7F0FF204605F0B1FB204627
:1068100010BD13B502A90023044641F8043D0069E8
:1068200000F025F96061019802B010BD006900F028
:1068300015B938B50546FFF7ECFF04462846FFF7C3
:10684000F5FF201A38BD38B50C1E054604DAFFF7EF
:10685000E0FF0134211800E02146286900F0F3F838
:106860006861B0FA80F0400938BD70B504460E4644
:106870000569FFF7DBFF811B284600F0E4F8606143
:10688000B0FA80F0400970BD38B50368DB68044693
:106890009847012105462046FFF7E7FF284638BD07
:1068A00013B5044602AB1046002243F8042D0A46F5
:1068B0000146206900F0A9F86061019802B010BD9E
:1068C00007B501220DF10701FFF7EAFF01280CBF10
:1068D0009DF807004FF0FF3003B05DF804FB0000A7
:1068E00038B5044668B1074B1D6845B12146286894
:1068F00007F0CEFB08B9686838BDED68F5E72846B3
:1069000038BD38BDD839002070B5064605462B463F
:1069100013F8014B84B13A2C01D01D46F7E7AD1BAB
:10692000EDB2681C06F0B6FC044628B12A46314692
:1069300006F0CFFC00236355204670BD38B50346F2
:106940001C4613F8012B7AB13A2AF9D101342046BA
:1069500007F0CBFB054606F09DFC2A46214606F0D3
:10696000B8FC0022425538BDBDE8384007F0A2BB54
:106970000D2070470D2070470D2070470D20704787
:106980000D2070470D2070470D2070470D20704777
:106990000D2070470D2070470D2070470D20704767
:1069A0000D2070470D2070470D20704708B500F08E
:1069B00093F8024B002808BF184608BD0432002097
:1069C00008B5FFF7A1FF10B1FFF78AFF02E000F062
:1069D00079F818B9BDE80840FFF7E8BF08BD70B501
:1069E00004460D461646FFF7EBFF3246036829467C
:1069F0002046BDE87040184710B5044600F07CF80A
:106A000043682046BDE8104018472DE9F04105468F
:106A10000E461746984600F06FF8846843463A469B
:106A200031462846A446BDE8F041604770B50446AB
:106A30000D46164600F060F83246C36829462046E7
:106A4000BDE87040184770B504460D4600F054F894
:106A5000294603692046BDE87040184710B5044632
:106A600000F04AF843692046BDE81040184770B569
:106A700004460D4600F040F8294683692046BDE8EB
:106A80007040184710B50446FFF79AFF436A204646
:106A9000BDE8104018470000F8B5094B1F680646CE
:106AA0003C461D4634B1F16BE06B07F0F1FA28B1BA
:106AB000246CF7E737642E602046F8BD0B20F8BD44
:106AC000DC390020034B186818B1036C002B18BF89
:106AD00000207047DC39002038B5064B1C6805469D
:106AE00034B12946E06B07F0D3FA08B1246CF7E71C
:106AF000204638BDDC39002008B1006870470148E5
:106B0000704700BF0432002010B5044604F066FF51
:106B10000128204603D1BDE8104006F0C3BBBDE804
:106B2000104004F0DBB810B5044604F057FF01280C
:106B3000204603D1BDE8104006F0ACBBBDE81040D4
:106B400004F0C0B8084808B500234FF0FF321946DA
:106B5000006804F0ADFA28B9044B054A05488C21B9
:106B600006F020FB08BD00BFE0390020AB060300A3
:106B700079070300CB060300074808B500231A462F
:106B80001946006804F0A2F928B9044B044A0548E4
:106B9000952106F007FB08BDE0390020AB06030095
:106BA00096070300CB06030010B50446FFF7CAFFA3
:106BB0000CB1636833B9074B074A084840F27221A9
:106BC00006F0F0FA5C68FFF7D7FF2046BDE81040FA
:106BD00001F066BB3107030083070300CB06030007
:106BE00010B50446FFF7AEFFA468FFF7C5FF2046C7
:106BF00010BD0000F8B504460D4616461F46FFF7C7
:106C0000A1FF0CB1606830B9084B094A09484FF43C
:106C1000167106F0C7FA3B463246294601F0E3FFFB
:106C20000446FFF7A9FF2046F8BD00BF3107030067
:106C300068070300CB06030010B50446FFF782FF88
:106C4000204600F0D3FD0446FFF796FF204610BD16
:106C500038B504460D46FFF775FF2946204600F07B
:106C6000A9FD0446FFF788FF204638BD70B50446ED
:106C70000D46FFF767FF02F005FB60B12046FFF706
:106C80005DFE2946064600F06BFD044626B13046FF
:106C9000FFF73AFF00E00D24FFF76EFF0CB1002371
:106CA0002B60204670BD10B50446FFF74BFF02F085
:106CB000E9FA28B12046002102F07AFC044600E0FF
:106CC0000D24FFF759FF204610BD38B504460D4688
:106CD000FFF738FF02F0D6FA28B12046294602F025
:106CE00011FC044600E00D24FFF746FF204638BDA6
:106CF00010B50446FFF726FF02F0C4FA20B1204683
:106D000002F0EFFB044600E00D24FFF735FF2046BC
:106D100010BD38B504460D46FFF714FF29466068DC
:106D200001F006FD0446FFF727FF204638BD38B5C1
:106D300004460D46FFF706FF2946204600F062FE96
:106D40000446FFF719FF204638BD70B504460D46CE
:106D50001646FFF7F7FE02F095FA30B120463246AC
:106D6000294603F0A1F8044600E00D24FFF704FFD4
:106D7000204670BDF8B504460D4616461F46FFF77F
:106D8000E1FE3B4632462946204600F04AFE0446D4
:106D9000FFF7F2FE2046F8BD10B5044638B1FFF704
:106DA000D1FE204600F060FE0446FFF7E5FE2046D7
:106DB00010BD73B505460C461646FFF7C3FE02F03C
:106DC00061FA88B12846FFF7B9FD2246014605461B
:106DD00001A800F0A1FD044668B9019B33607DB1B4
:106DE0002846FFF791FE00E00D24FFF7C5FE4CB1E9
:106DF0000023336006E0002DF2D1FFF7BDFEF7E778
:106E0000FFF7BAFE204602B070BD10B50446FFF78A
:106E100099FE204600F03AFF0446FFF7ADFE2046FB
:106E200010BD10B50446FFF78DFE204602F066FF48
:106E30000446FFF7A1FE204610BD000038B500F063
:106E4000F9FB00F0E5FB012004F0C0F82B4B1860C3
:106E500000284ED02A4D2B4C2868FFF755FEA0681D
:106E60000001FFF760FE286008B9052038BD264DF7
:106E70002868FFF749FE236818205843FFF753FEA0
:106E800028600028F1D0214D2868FFF73DFE636897
:106E90000C205843FFF747FE28600028E5D01C4D22
:106EA0002868FFF731FE236924205843FFF73BFE93
:106EB00028600028D9D0174D2868FFF725FE6069A3
:106EC0004001FFF730FE28600028CED0124D286820
:106ED000FFF71AFEE0680001FFF725FE2860002892
:106EE000C3D002F033F9044628B90C48FFF7D4FDAB
:106EF00001E00A2038BD204638BD00BFE03900203F
:106F00009C3C0020DC3C0020A43C0020D83C00201D
:106F10000C3C0020A03C0020D43C00204832002043
:106F20000268094B9A420DD14268084B9A4209D136
:106F30008268074B9A4205D1C36806481B1A58421B
:106F40005841704700207047E2318AB98C42B07FC7
:106F50005382E0AC8EFC85B108B50146FFF7E0FF37
:106F600020B1C87DA0F1FF035842584108BD007D03
:106F7000431E58425841704738B50C460546182202
:106F80000021204606F0CBF9074B08480849094A7A
:106F900084E80F006B68236101232375AB7B637565
:106FA000AB89E37538BD00BF8EFC85B1E2318AB98B
:106FB0008C42B07F5382E0AC42688068101A704700
:106FC0002DE9F043164B1E78164B1B680022143334
:106FD000B24221DA571CA3F1140C1D463C46B442C0
:106FE00017DAAE4633F8088CBEF80C90C14505F1AF
:106FF00014050CD1DCF80850DEF808309D4235BF8E
:10700000048002800A800C800020BDE8F0830134F7
:10701000E5E714333A46DBE70620BDE8F08300BF1E
:10702000983C0020A83C002008B5044803F0FAF979
:1070300018B1002303604360836008BDAC3C0020AE
:1070400010B50446406801F03DF928B9054B064AE1
:1070500006482B2106F0A6F821460548BDE8104059
:1070600003F0F8B9BD07030085080300E807030033
:10707000AC3C002013B50446FFF7D6FF01A9206001
:1070800001F08AFF0028F7D1019802B010BD10B5B9
:107090001423144600F0FAFC30B9206801F012F90C
:1070A00000280CBF0920002010BDF7B50446008A57
:1070B00014300F4615460DF1030101AA80B21E4699
:1070C00001F08AFFC8B91423224601999DF80300F4
:1070D00000F008FD88B9238A33B99DF803302B707E
:1070E000019B3360002008E001999DF803003A46B7
:1070F000143100F0F7FC0028EFD003B0F0BD000021
:1071000008B583682BB90B4B0B4A0C48D82106F005
:1071100049F802685B6852680A6042684B60C3685D
:107120008A8113B94FF0FF3300E05B688B60038AFC
:107130000B8208BD5408030072080300E80703002F
:1071400030B5044689B048680D4601F0BBF830B947
:10715000124B134A13484FF4AB7106F023F828463C
:1071600001F0F8F810B12560062015E002AA0DF133
:107170000701A86800F020FD03AA02999DF8070006
:10718000FFF785FF40B9BDF81C30BDF81820256019
:107190006260A060E060238209B030BDBD070300DB
:1071A0009B080300E807030073B51D4603680C46FF
:1071B00016460DF1030101AA986800F0FDFC019943
:1071C0009DF803001431214433462A46019100F012
:1071D0005DFC02B070BD10B500218468FF2000F096
:1071E000D7FC231A5842584110BD000030B505465F
:1071F00089B048680C4601F065F830B91D4B1E4A4D
:107200001E484FF4C67105F0CDFF2046FFF7E3FF9F
:1072100020B100202C60A860E86028E002AA0DF1EF
:107220000701A06800F0C8FC03AA02999DF80700B6
:10723000FFF72DFFD8B9BDF81C30BDF818202C6021
:10724000A860E8602B826A60049801F055F8B0FAF3
:1072500080F4A8600598431C4FEA541401D12046DD
:1072600005E001F05FF8E8600028F8D1012009B0DE
:1072700030BD00BFBD070300A2070300E8070300FD
:1072800030B587B0054601F065F838B1284601F001
:10729000B5F82846FFF7D4FE012014E0294601A8DE
:1072A000FFF7A4FF012804460CD8039B23B11A69F9
:1072B000954204BF049A1A61284601F09FF82846B7
:1072C000FFF7BEFE204607B030BD000010B50446F3
:1072D000A16959B10B684A680BB15A6000E0E261DC
:1072E0004A680348136003F0B5F8F1E710BD00BF2A
:1072F000543C002010B5044638B1FFF7E7FF2146A3
:107300000248BDE8104003F0A5B810BDE83B0020DE
:1073100010B5084803F086F8044640B12422002145
:1073200005F0FDFF2346002243F8182FE3612046B5
:1073300010BD00BFE83B002010B5054803F072F80F
:10734000044618B12022002105F0E9FF204610BDB7
:10735000543C002008B5FFF7EFFFB8B90C4B5B6851
:107360005B68186860B1836943B1FFF7AFFFFFF74F
:10737000E3FF58B9074B084A3F2104E04368EFE7B1
:10738000064B074AE621074805F00CFF08BD00BF81
:107390008C3200206D090300D8080300B0100300F0
:1073A000BE0803000109030083690BB90B6007E005
:1073B000DB690B60C3695B6819680B8BC9690B4497
:1073C00013607047094A13682BB19968884219689D
:1073D00002D00B46F8E77047586809B1486000E0F2
:1073E00050605A6818461160FFF784BF8C32002045
:1073F000F8B5284D2C6807460E4624B1A3689E4276
:1074000043D02468F9E7FFF783FF0446E0B96B68CF
:107410005B68186818B9204B204A802111E0036886
:1074200042680BB15A6001E01A494A604268136031
:10743000FFF760FFFFF76CFF044628B9164B174AA9
:107440008821174805F0AEFE24220021204605F0D1
:1074500066FF314604F1080001F078FB064670B97A
:1074600004F12001A06801F039F9064638B92B680B
:10747000236003B9074B5C602C60656005E0204623
:10748000FFF738FF00233B6001E03C6000263046F8
:10749000F8BD00BF8C32002064080300950903008A
:1074A00001090300074B10B51C6820464CB1FFF7DB
:1074B0000DFFA16804F1080001F048FB08B9246839
:1074C000F3E710BD8C32002032B100230B60C3699A
:1074D0004B601960C161704783690B600BB15960E3
:1074E00000E0C16140F8181F486070472DE9F04383
:1074F000036A89B0064689461746002B7BD002AA4C
:1075000001A9FFF751FF029D7DB1019B4B4504D9B5
:107510008369D3F81480DD690BE04D4505D9C36953
:107520005B681C68D4F8088004E0B368356AD3F857
:1075300010800024019B9D4219D834B1314B324A4E
:10754000324840F2A91105F02DFEFFF703FF414636
:1075500004460830FFF74AFE00284FD1238BED1A6E
:107560000246E56121463046FFF7AEFF00E01CB160
:10757000E569D4F814800AE0414603A8FFF736FE17
:1075800000283BD1BDF81C30DDF81880ED1A4D45C0
:107590002BD834BBFFF7DEFE0DF10C0C044600F1D6
:1075A000080EBCE80F00AEE80F00DCF80030CEF8A3
:1075B0000030B369E56163B1F3695A681268926893
:1075C0003AB1904505D1002284E80C001C60F461BA
:1075D00007E03046FFF77AFE002221463046FFF7EB
:1075E00073FF57B13C60002008E0002CA2D0636814
:1075F0005B681C689EE7062000E0384609B0BDE8DD
:10760000F08300BF81090300F108030001090300B2
:1076100010B5074C206850B1036842680BB15A603E
:1076200000E0626042681360FFF764FEF2E710BD9D
:107630008C3200200F4B1A680AB964221A605A680B
:1076400012B90C4A642151609A6812B9094A04219E
:1076500091601A6912B9074A042111615A6912B975
:10766000044A40215161DB6813B9024B0422DA60FD
:10767000704700BFDC3C00202DE9F04106468846FB
:1076800017461C46ACB1B4F5807F254628BF4FF4A1
:1076900080752B46094A3946404600F0F7F958B93B
:1076A00030462A46054902F00BFF2F440646641B6C
:1076B000E8E7069B20461E80BDE8F081F43C0020F0
:1076C00001461222002002F0FBBEF0B585B005464F
:1076D0000E461746FFF7F4FF04AC2B8A24F8020D80
:1076E00007F1140200943146FFF7C6FF28B9BDF830
:1076F0000E006B8A181A18BF012005B0F0BD38B50E
:1077000004460D46FFF7DCFF228A294602F0D8FE28
:10771000608238BDF0B585B005460E461746FFF7C6
:10772000CFFF04AC6B7C24F8020D07F11402009427
:107730003146FFF7A1FF28B9BDF80E006B8A181A71
:1077400018BF012005B0F0BD38B504460D46FFF75F
:10775000B7FF627C294602F0B3FE608238BD0000AC
:1077600073B50E4601A901F0B1FE0446B0B9019B04
:10777000586800F095FD98B10C4802F053FE05469C
:1077800080B11022214605F0CAFD0198686000F022
:10779000E3FF074BAC60EC602B603560204602E0F5
:1077A000042000E0052002B070BD00BF103C0020A6
:1077B0004832002070B50446C0680E4610B96368B0
:1077C0001D6903E0C56800F0DBFF60B9E56015B92D
:1077D0003560062070BD284600F0BEFF024B44F81D
:1077E000083F0020346070BD4832002010B50446C8
:1077F00008B9002010BDC06820B9606800F0C0FF63
:1078000060B904E000F0BCFF0028F6D010BD2146AE
:10781000034802F01FFE0028EBD00A2010BD00BF75
:10782000103C00202DE9F04188B0054601A80E4625
:107830001746984600F00AFF044600285AD102AACB
:107840000DF1030107F1140001F0C6FB0446002806
:1078500050D11422FF2103A805F061FDB8F1000FFB
:1078600001D0284A00E0284A1368591C116003938C
:107870004FF0FF320023ADF81830059205B16A6869
:107880000492314603A88DF81C308DF81D70FFF767
:107890005BFF029B9DF80320314603A800F0F2FE37
:1078A000044638BB019E039B736002999DF8030058
:1078B00000F06EF9B060019801230375046135B1E1
:1078C0000146284601F0AAF9044698B90AE0039B4C
:1078D0002BB10E4B0E4A0F487E2105F063FC202190
:1078E00001F000FB019800F04DFD0E9B019A1A601B
:1078F000002003E0019800F025FE204608B0BDE816
:10790000F08100BFF83D0020043E0020BC090300C8
:10791000AE090300E20903002DE9F041804690071B
:107920008AB00F46164663D012F00C0303D09107BD
:107930005ED50C2B5CD0314802F074FD0546002862
:1079400058D01022002105F0EAFC394605A801F0C4
:1079500078FD03AA04A905A801F078FD06280446CD
:107960000ED1059B022B3DD1B2073BD503980028D1
:1079700038D02B1D00939DF820200799002311E09B
:1079800080BB049B586800F08BFC50BB33070ED5BE
:10799000384601F0A6FD2B1D9DF82020079903987D
:1079A00000932346FFF73EFF0446D8B901E0049B4D
:1079B0006B6006F0040303F0FF023BB105F1080120
:1079C000686800F0B5FE044660B900E0AA60686827
:1079D00000F0C2FE0A4B2E732B600020C8F8005046
:1079E00009E004242946054802F034FD204602E05F
:1079F000042000E005200AB0BDE8F081343C0020FE
:107A00004832002037B504460D46406801A900F011
:107A10008FFE20B9019BAB422CBFA560032003B0B1
:107A200030BDF0B585B005460E4617461C4601F040
:107A300029FC90B12B7BDB0711D503AB00933246B9
:107A40003B46A968686800F0FDFF58B9AB68039A27
:107A50001344AB602CB1226004E00D2002E00C2046
:107A600000E0204605B0F0BD10B50446406800F0C7
:107A700087FE38B92146044802F0ECFC00280CBF10
:107A800000200A2010BD00BF343C0020F8B5104D86
:107A90002D7885421C4605D80E4B0F4A0F483121E0
:107AA00005F080FB0E4D00EB80002E68800035183D
:107AB0000C446F68BC4209D830580144E87B02F09E
:107AC000DDFB002814BF02200020F8BD0320F8BD14
:107AD000983C00204D0A0300ED0A0300670A0300EA
:107AE000A83C0020F8B5124C247884421D4605D8E5
:107AF000104B114A1148582105F054FB104C00EB73
:107B000080002668800034180D446768BD420AD89A
:107B1000A768B94207D330580144E07B02F0CEFB9E
:107B200018B9A560F8BD0320F8BD0220F8BD00BF5C
:107B3000983C00204D0A0300FD0A0300670A030079
:107B4000A83C00202DE9F843089C80460E4691464B
:107B50001F46BCB1B4F5807F254628BF4FF4807521
:107B60002B460A4A31464046FFF790FF58B92B464C
:107B7000064A39464846FFF7B5FF20B92E442F4440
:107B8000641BE6E72046BDE8F88300BFF43C002014
:107B9000B1F1807F08B505D3044B054A0548A621FD
:107BA00005F000FB41EA006008BD00BFD30A0300F6
:107BB0000E0B0300670A0300030E20F07F400B70DA
:107BC000106070472DE9F041134F00EB80043B68D3
:107BD000A4001D1986B0064688466A681959E87BD4
:107BE00002F08CFBA0B9A86069462846FFF7C4F9EB
:107BF000B8F1000F05D03B681C44FF23A381172375
:107C000000E018236A4600213046FFF76BFF00E0D2
:107C1000022006B0BDE8F081A83C002030B5164B2C
:107C20001B78834287B004460D4605D8134B144A8F
:107C30001448252105F0B6FA18236A460021FFF7FB
:107C400025FFB8B9104A126804EB840302EB8303E2
:107C500068469D81FFF780F9014618B92046FFF775
:107C6000B1FF07E006AA012302F8015D17212046B3
:107C7000FFF738FF07B030BD983C00204D0A0300E5
:107C80001D0B03003B0B0300A83C00202DE9F74F20
:107C90003B4E074601F05AFA002333701A46012082
:107CA0000C2505FB00714C686CB1B0F5807F5ED08F
:107CB00002EB420107EB810149688C4284BFC2B2EA
:107CC00001230130EDE703B13270C0B201F0D2F907
:107CD000044600284ED1DFF8B890DFF8B8A0B846C7
:107CE00005464FF0140B99F800309D4223DADAF87C
:107CF0000000D8F800200BFB05F143184250D8F8DB
:107D0000042031785A6098F80820DA738D424FF0D9
:107D100000029A609A7306BFFF229A819D816B1AB6
:107D200059425941E8B2FFF74DFF08F10C080446EB
:107D300000BB0135D7E701F00BF90446D0B9114B70
:107D40000093024601231049FFF76CFD044688B9F1
:107D500001F0E8F9044668B901F0E2F8044648B9D0
:107D600001F0ACF9044628B9084B1F6004E003B1E8
:107D70003270042401F0EAF9204603B0BDE8F08F28
:107D8000083C0020D03C0020271D0300743C00204C
:107D9000983C0020A83C0020F0B585B00D46144664
:107DA0000DF10B0103AA06460068FFF705FF0C4B17
:107DB0009DF80B001B68039904EB840203EB82031C
:107DC00022469F6800953B46FFF7BCFE054620B95A
:107DD00039462046FFF7DCFE3060284605B0F0BD8E
:107DE000A83C0020F0B5044687B00E461746002593
:107DF000B5421AD22CB90E4B0E4A0F48842105F019
:107E0000D1F9214601A8FFF7F1F978B9BDF81410AE
:107E100014313A4689B204F10800FFF7BDFF28B9D2
:107E2000BDF81430049C1D44E2E7002007B0F0BD0B
:107E300064080300D80C0300D10B03002DE9F04FB8
:107E400095B0814615461E46DDF878B011B91A4640
:107E50002946B3E0142200210AA805F060FA03F0D5
:107E6000BDFD0128284602D105F014FA01E002F018
:107E700029FF0746002800F08F80142200210AA85D
:107E800005F04DFA514B1B680193A8464C46B8F1DA
:107E9000000F3AD021460FA8FFF7A8F98246002824
:107EA0007CD1BDF84C30C3EB08080F9B04AA98683E
:107EB0000DF10F01FFF780FE0499BDF84C309DF8DD
:107EC0000F00143107EB08020491FFF7DFFD824633
:107ED000002863D1A1450DD0BBF1000F06D0DBF81F
:107EE00000309C4204BF2368CBF800302046FFF7E7
:107EF000C7F908E00DF13C0EBEE80F000AAC0FC454
:107F0000DEF800302360129CC1E7DDF828B0BBF139
:107F1000000F05D12E4B2F4A2F48E82105F042F9DA
:107F2000142241460DEB020005F0F9F9DBF80430AC
:107F300005930B9B0133ADF820300C9B5B680693D7
:107F400014B94FF0FF3300E063680793394605A882
:107F5000ADF82450FFF7D3FB019A06EB860302EB42
:107F6000830A1423DAF808400DEB03022146304659
:107F7000FFF7B8FD824688B92B463A4604F1140152
:107F80003046FFF7AFFD824640B921463046FFF745
:107F9000FFFDC9F8080001E04FF0050A03F01EFDDF
:107FA0000128384602D105F07DF901E002F096FE85
:107FB000BAF1050F05D1324629464846FFF712FFB0
:107FC0008246504615B0BDE8F08F00BFA83C0020A7
:107FD0003A0C0300F90C0300D10B03002DE9F04F1C
:107FE000814B82491E78824B0F781B6891B01A46EC
:107FF00002930590012300248B46B34216DA9F4278
:1080000011D00299906904EB840501EB850569683C
:10801000884207D8A74205D092F82210A87B091AF7
:10802000090600D5DCB201331432E6E7A74203D1DA
:10803000704B714A712148E0029B04EB840903EB09
:108040008909384699F80C10FFF7E8FD002840F040
:10805000C7800390694B039A1B689D5811E0002666
:10806000D5F81080B2463546B8F1000F7ED04146B3
:108070000BA8FFF7BBF800283CD0002840F0B080E8
:10808000089D002D7DD02B686868089300F016F9D4
:108090000028F5D009AA0DF11E01A868FFF78CFD94
:1080A0009DF81E30A34213D0686800F0FFF8002846
:1080B000E6D09BF800306868049300F0F7F80028D9
:1080C000CDD14F4B4F4A4FF4A9714F4805F06AF894
:1080D00029460BA89BF8008000F038FD38B99DF8C0
:1080E00038104246143105F10800FFF755FE00280C
:1080F000DAD075E00AAA0DF11F01D8F80800FFF7E1
:108100005BFD9DF81F30A3421CD1404ABDF83C30B6
:1081100012885344002D08BF4546934203D8A84512
:1081200018BF01261EE008AB00935246049B31465F
:108130002846FFF783FE00289FD1BDF83C30454616
:1081400006460FE06DB108AB00935246049B3146E2
:108150002846FFF773FE00288FD1064603460546E2
:1081600000E05346DDF838809A467DE7002D87D041
:1081700008AB00935246049B31462846FFF75EFE4B
:108180007BE7039B0433B3F5806F03937FF462AF07
:10819000029B07EB870703EB8707D9F80830BA681B
:1081A0009A4204D91A4B1B4A40F2FD118DE799F807
:1081B0000E30013389F80E3001212046FFF702FD11
:1081C00070B9059B1BB1059A9BF8003013708BF8B2
:1081D0000040FFF767F918B90F4A136801331360BD
:1081E00011B0BDE8F08F00BF983C0020083C002093
:1081F000A83C0020530C0300BD0B0300003E0020F0
:108200007A0C0300A80B0300D10B0300CC3C002028
:10821000B30C0300F10C0300F43D00202DE9F843FA
:10822000104FDFF8449080460E4600253B789D4273
:1082300011DA3046FFF7D2FE044678B93078D9F823
:10824000003000EB800003EB8000FEF7B5FE4045F8
:1082500004D20135EAE70820BDE8F8832046BDE8EE
:10826000F88300BF983C0020A83C00200B4B70B561
:108270001D68C4B2002255F824100B4663B15E6835
:10828000B04206D142B118681060196045F8243038
:1082900002E01A461B68F1E7184670BD003E002058
:1082A000B0F1805F2CBF00200120704700F17040CA
:1082B000B0F1E04F2CBF002001207047C043C00F39
:1082C00070470000034B00F1004098428CBF002033
:1082D00001207047FEFFFF7F064BC2B21B6853F8B8
:1082E000223023B15A68904201D01B68F9E7184642
:1082F000704700BF003E002008B50346FFF7DEFFD1
:1083000028B9054B054A0648722104F04BFF184670
:10831000BDE80840FFF7AABF150D03002D0E0300AE
:108320002F0D030008B5074B00F100429A4205D912
:10833000054B064A06487D2104F034FFBDE808409D
:10834000FFF794BFFEFFFF7F9A0D0300420E03006C
:108350002F0D030010B500218468FF20FFF718FCE3
:10836000231A5842584110BD10B5FFF7B5FF38B178
:1083700084680021FF20FFF70BFC231A5842584164
:1083800010BD0000416810B504460846FFF7A4FF81
:1083900018B1144B144A9A2112E0144BCAB21B684C
:1083A00053F82200206043F822400846FFF786FF7A
:1083B00070B10846FFF7A0FF28B90D4B0A4AA32168
:1083C0000C4804F0EFFE4021BDE8104000F08ABDEB
:1083D0000846FFF781FF18B9074B034AA621EFE7CC
:1083E00010BD00BFB40D0300570E0300003E002077
:1083F000DA0D03002F0D0300DE0D030038B54368CE
:1084000004461846FFF75AFF054618468DB1FFF798
:1084100073FF054618B91C4B1C4AB32106E04021E6
:1084200000F06BFD60B91A4B184AB421194804F0EA
:10843000B9FEFFF751FF18B9174B144AB621F5E7FB
:10844000164B60681A68C1B252F821309C4203D1C1
:10845000236842F8213006E01A68944201D013469E
:10846000FAE722681A60FFF729FF20B11DB1402109
:10847000284600F03CFD6068FFF72EFF18B1084B5E
:10848000024AC221D2E738BDDA0D0300680E0300AC
:10849000FC0D03002F0D0300DE0D0300003E002045
:1084A000B40D030010B50B4C206804F0FBFE4FF434
:1084B000806004F0EFFE206048B100231946226876
:1084C000D1500433B3F5806FF9D1002010BD0520E1
:1084D00010BD00BF003E002073B516461D46CA18E9
:1084E000037B9A420C4606DD0C4B0D4A0D4840F2C8
:1084F000D12104F057FE036801AA0DF10301986829
:10850000FFF75AFB01999DF80300143121442B46D3
:1085100032460191FFF7BAFA02B070BD420F030074
:10852000A8120300720F030010B5054801F07AFF8E
:10853000044618B11822002104F0F1FE204610BDB7
:10854000783C002010B50446B0B1437D5B0603D5EE
:108550000A4B0B4A382106E04068FFF7AFFE28B906
:10856000084B074A3921084804F01CFE21460748F9
:10857000BDE8104001F06EBF10BD00BFDE0F03006C
:10858000950E030018100300720F0300783C0020C2
:1085900070B50E46044620B9254B264A4FF4B271F9
:1085A00005E0037D33B9244B224A40F2651123488C
:1085B00004F0F8FD013BDBB20375002B33D14068BA
:1085C000FFF774FE054630B36068FFF76FFEC0B179
:1085D000637D606863F07F036375FFF767FE38B9FA
:1085E000174B184A4FF48671E1E7FEF749FE18B9B8
:1085F00020690028F9D104E0012816D1AEB100238A
:1086000023612046FEF7DEFE2046FFF7F7FE2046F8
:10861000FFF798FF07E02046FFF7F0FE0A4B1A68C5
:1086200022601C6002E0002500E00546284670BD7F
:1086300052100300FB0E03005E100300720F0300D4
:108640007A0C0300AB0E0300E439002013B5044696
:10865000FFF76AFF01A9206000F09EFC0028F7D117
:10866000019802B010BD10B514231446FFF70EFA9E
:1086700030B92068FFF722FE00280CBF0920002037
:1086800010BD00002DE9F041047C34F08004054663
:10869000884616461F4605D00D4B0E4A0E487821D7
:1086A00004F080FD0246142339463046FFF71AFADB
:1086B00048B96B7C43B1424607F114013046BDE82E
:1086C000F041FFF70FBA04462046BDE8F08100BF35
:1086D0007A100300160F0300720F030030B5044632
:1086E00087B040680D46FFF7E1FD28B90D4B0E4AF3
:1086F0000E48962104F056FD00232B602169A375D6
:1087000069B101A8FEF772FD50B92A68BDF81430AE
:10871000049913442B60A37D0133A375F0E7084649
:1087200007B030BD7A0C030058120300720F03002B
:1087300013B50C46014601A8FEF75AFE10B9019B7D
:108740001B6A236002B010BD83680BB15868704784
:108750004FF0FF307047000008B530B9054B064AAE
:10876000064840F2791104F01DFD037D01330375C5
:10877000002008BD521003002C0F0300720F0300ED
:108780000021FFF705BF000030B5836889B00546BA
:1087900033B91E4B1E4A1F4840F2D31104F002FDAC
:1087A00002AA0DF10701142000F016FC58BB2A683C
:1087B0006B6851680391013380216B608DF81C1048
:1087C0001269ADF818304FF0FF33049302B15368CB
:1087D00005931149002303A88DF81D30FEF7B4FF5F
:1087E000029B9DF807200C4903A8FFF74BFF2B685D
:1087F00004465868FFF75AFD20B12A68537D63F09C
:108800007F035375204609B030BD00BFB21003008E
:10881000790E0300720F0300271D030038B50368AB
:108820005B7D9B06044604D4164B174A40F2463142
:1088300005E0856835B9154B134A4FF45271144859
:1088400004F0B0FC6868FFF72BFD20B9114B0E4A0D
:1088500040F24931F3E72B692268934202D1DB6889
:108860002B6106E0D9688A4201D00B46FAE7D2684C
:10887000DA6023680022DA605A7D22F020025A75FD
:1088800038BD00BFCB100300E30E0300BC10030093
:10889000720F03000E1103002DE9F84383680446AC
:1088A0000F4616460BB1FFF7B9FF2268537D63F000
:1088B0007F03537523685868FFF7F2FC78B3246888
:1088C0002046FFF79BFD1B4B1A6822601C601D466B
:1088D00098462C6844B36068FFF7E2FC30B9164B49
:1088E000164A17484FF4D47104F05CFCD8F80030F5
:1088F00020691B68C8F8003068B1D0F80C9026B128
:108900003368834208BFC6F800903946FFF740FE3F
:1089100068B94846F0E72046FFF714FED9E7394624
:108920002068FFF735FE10B90020BDE8F883BDE8E8
:10893000F88300BFE43900204111030089120300CD
:10894000720F03002DE9F047057B9542A8BF15463D
:10895000032D2C46A8BF0324074690460D3022461F
:108960001E46894605F0C9FB30603068C0B9AC428C
:1089700019DAC4EB050ABAF1810F28BF4FF0800A5B
:1089800053460C4AE1B23846FFF7A6FD78B909EB29
:1089900004015246074805F0B0FB54443060E4E758
:1089A0000020BDE8F0873B7BC8EB03033360BDE8E4
:1089B000F08700BFF43C00202DE9F047057B0B7BDE
:1089C0009D4228BF1D46032D2C46A8BF03241646F2
:1089D00080460F4622460D310D3005F08EFB30608B
:1089E000306808BBA54222DDC4EB0509B9F1810F4F
:1089F00028BF4FF080095FFA84FA4B460F4A514670
:108A00004046FFF769FDB8B94B460D4A5146384616
:108A1000FFF762FD80B90A494A46A1F1800005F0DE
:108A20006CFB4C443060DBE70020BDE8F08798F831
:108A30000C303A7B9B1A3360BDE8F087F43C002091
:108A4000743D00202DE9F74F0C9E0F469A461446C0
:108A500022B90EB9002047E03260FBE701466846C4
:108A6000FEF7C6FC00283FD1009B1A6A3C449442A2
:108A70000DF1080828BF1446C7EB040948F8040D97
:108A8000A3464D465DB3019B2BB10198C3699F423C
:108A90000AD800210AE042460BF1FF310098FEF7A8
:108AA00025FD0028F1D01FE0F91A89B2028B13448A
:108AB000A342A2EB010292B282BFE31AD21892B291
:108AC000AD1A0AEB05030830C2EB0B0BFEF76CFB8B
:108AD00050B9019B5B685B681B680193D2E7002E6D
:108AE000B8D0C6F80090284603B0BDE8F08F0A461B
:108AF0000021FFF7D1BE0A460121FFF7CDBE10B518
:108B00000446FFF741FE014620B92046BDE810406B
:108B1000FFF7EDBF10BD000038B5002185680446A1
:108B2000FF20FFF735F8854205D1637D43F001034F
:108B30006375012038BD044B1B689C421ABF607DE1
:108B400000F00100002038BDD03C002070B5044684
:108B500088B008460E46FFF7DFFF054638B1102201
:108B60000021204604F0DBFB0625266038E002AA3F
:108B70000DF10701B068FFF71FF803AA02999DF8ED
:108B80000700FFF770FD50BB0498BDF81830636014
:108B9000431C266001D1A56002E0FFF7ADFBA06099
:108BA0009DF81D302373032B0ED873B99DF91C302B
:108BB000002B15DA2268537D63F07F035375737DB4
:108BC00063F07F0373750BE0032302999DF80700A0
:108BD00004F10D021431FEF759FF0028E6D00546D6
:108BE000284608B070BDF0B585B00E46014668460F
:108BF00015461F46FFF7AAFF70B99DF80C40B44216
:108C000028BF06F1FF3423462A4600216846FFF7B5
:108C100063FC08B928553C7005B0F0BDF0B50746B7
:108C20008BB040680C46FFF73BFB20B91E4B1F4A38
:108C300040F21B3106E0637D9B0606D51C4B1B4AA8
:108C40004FF447711B4804F0ADFA214602A8FFF724
:108C50007DFF38BB3D690646A5B1A54204D1164B40
:108C6000124A40F22531EDE7294606A8FFF76EFFCC
:108C7000C0B901AA06A902A8FFF79EFE90B9019B00
:108C8000002B04DA36B93B69E3603C6105E02E460F
:108C9000ED68E1E7F368E360F460637D43F020038F
:108CA000637500200BB0F0BD0E11030074120300B9
:108CB00074110300720F0300A811030070B505467C
:108CC0008CB040680C461646FFF7EAFA60B12146C0
:108CD00041B18D4206D007A8FFF738FF00286AD1BE
:108CE0000999F5E78D4263D0294603A8FFF72EFFC7
:108CF000002860D1059B9C420DD013B103A8FFF75B
:108D00008DFD0CB9059406E003992046FFF786FF18
:108D10000028F7D04FE026B1304605F0E6F90446CA
:108D200012E002AA0DF10701A8689DF81840FEF7AD
:108D300043FF0299214A9DF8070023461431FEF7AC
:108D4000A5FE002837D11D4E04F1140002AA0DF132
:108D5000070180B200F040F9024660BB6B680793E0
:108D6000049B03A80133ADF82830FFF7EDFC2B6915
:108D700008908DF82C208DF82D4013B15B685A1C9B
:108D800001D14FF0FF33314607A80993FEF7DCFC11
:108D9000029B9DF80720314607A8FFF773FC0446A5
:108DA00040B902999DF80700FEF7F2FEA86001E0C5
:108DB000042000E020460CB070BD00BFF43C002051
